{
  "contractName": "keyWords",
  "abi": [
    {
      "constant": true,
      "inputs": [],
      "name": "blockHash",
      "outputs": [
        {
          "internalType": "bytes32",
          "name": "",
          "type": "bytes32"
        }
      ],
      "payable": false,
      "stateMutability": "view",
      "type": "function"
    },
    {
      "constant": true,
      "inputs": [],
      "name": "data",
      "outputs": [
        {
          "internalType": "bytes",
          "name": "",
          "type": "bytes"
        }
      ],
      "payable": false,
      "stateMutability": "view",
      "type": "function"
    },
    {
      "constant": true,
      "inputs": [],
      "name": "difficulty",
      "outputs": [
        {
          "internalType": "uint256",
          "name": "",
          "type": "uint256"
        }
      ],
      "payable": false,
      "stateMutability": "view",
      "type": "function"
    },
    {
      "constant": true,
      "inputs": [],
      "name": "gas",
      "outputs": [
        {
          "internalType": "uint256",
          "name": "",
          "type": "uint256"
        }
      ],
      "payable": false,
      "stateMutability": "view",
      "type": "function"
    },
    {
      "constant": true,
      "inputs": [],
      "name": "gasLimit",
      "outputs": [
        {
          "internalType": "uint256",
          "name": "",
          "type": "uint256"
        }
      ],
      "payable": false,
      "stateMutability": "view",
      "type": "function"
    },
    {
      "constant": true,
      "inputs": [],
      "name": "miner",
      "outputs": [
        {
          "internalType": "address",
          "name": "",
          "type": "address"
        }
      ],
      "payable": false,
      "stateMutability": "view",
      "type": "function"
    },
    {
      "constant": true,
      "inputs": [],
      "name": "oneEther",
      "outputs": [
        {
          "internalType": "uint256",
          "name": "",
          "type": "uint256"
        }
      ],
      "payable": false,
      "stateMutability": "view",
      "type": "function"
    },
    {
      "constant": true,
      "inputs": [],
      "name": "oneFinney",
      "outputs": [
        {
          "internalType": "uint256",
          "name": "",
          "type": "uint256"
        }
      ],
      "payable": false,
      "stateMutability": "view",
      "type": "function"
    },
    {
      "constant": true,
      "inputs": [],
      "name": "oneHour",
      "outputs": [
        {
          "internalType": "uint256",
          "name": "",
          "type": "uint256"
        }
      ],
      "payable": false,
      "stateMutability": "view",
      "type": "function"
    },
    {
      "constant": true,
      "inputs": [],
      "name": "oneMinute",
      "outputs": [
        {
          "internalType": "uint256",
          "name": "",
          "type": "uint256"
        }
      ],
      "payable": false,
      "stateMutability": "view",
      "type": "function"
    },
    {
      "constant": true,
      "inputs": [],
      "name": "oneSecond",
      "outputs": [
        {
          "internalType": "uint256",
          "name": "",
          "type": "uint256"
        }
      ],
      "payable": false,
      "stateMutability": "view",
      "type": "function"
    },
    {
      "constant": true,
      "inputs": [],
      "name": "oneSzabo",
      "outputs": [
        {
          "internalType": "uint256",
          "name": "",
          "type": "uint256"
        }
      ],
      "payable": false,
      "stateMutability": "view",
      "type": "function"
    },
    {
      "constant": true,
      "inputs": [],
      "name": "oneWeek",
      "outputs": [
        {
          "internalType": "uint256",
          "name": "",
          "type": "uint256"
        }
      ],
      "payable": false,
      "stateMutability": "view",
      "type": "function"
    },
    {
      "constant": true,
      "inputs": [],
      "name": "oneWei",
      "outputs": [
        {
          "internalType": "uint256",
          "name": "",
          "type": "uint256"
        }
      ],
      "payable": false,
      "stateMutability": "view",
      "type": "function"
    },
    {
      "constant": true,
      "inputs": [],
      "name": "sender",
      "outputs": [
        {
          "internalType": "address",
          "name": "",
          "type": "address"
        }
      ],
      "payable": false,
      "stateMutability": "view",
      "type": "function"
    },
    {
      "constant": true,
      "inputs": [],
      "name": "signature",
      "outputs": [
        {
          "internalType": "bytes4",
          "name": "",
          "type": "bytes4"
        }
      ],
      "payable": false,
      "stateMutability": "view",
      "type": "function"
    },
    {
      "constant": true,
      "inputs": [],
      "name": "time",
      "outputs": [
        {
          "internalType": "uint256",
          "name": "",
          "type": "uint256"
        }
      ],
      "payable": false,
      "stateMutability": "view",
      "type": "function"
    },
    {
      "constant": true,
      "inputs": [],
      "name": "time2",
      "outputs": [
        {
          "internalType": "uint256",
          "name": "",
          "type": "uint256"
        }
      ],
      "payable": false,
      "stateMutability": "view",
      "type": "function"
    },
    {
      "constant": true,
      "inputs": [],
      "name": "value",
      "outputs": [
        {
          "internalType": "uint256",
          "name": "",
          "type": "uint256"
        }
      ],
      "payable": false,
      "stateMutability": "view",
      "type": "function"
    }
  ],
  "bytecode": "0x6080604052600160005564e8d4a5100060015566038d7ea4c68000600255670de0b6b3a76400006003556001600455603c600555610e1060065562093a8060075560344060085541600960006101000a81548173ffffffffffffffffffffffffffffffffffffffff021916908373ffffffffffffffffffffffffffffffffffffffff16021790555044600a5545600b5542600c5542600d55600036600e91906100a9929190610147565b505a600f5533601060006101000a81548173ffffffffffffffffffffffffffffffffffffffff021916908373ffffffffffffffffffffffffffffffffffffffff1602179055506000357fffffffff0000000000000000000000000000000000000000000000000000000016601060146101000a81548163ffffffff021916908360e01c02179055503460115534801561014157600080fd5b506101ec565b828054600181600116156101000203166002900490600052602060002090601f016020900481019282601f1061018857803560ff19168380011785556101b6565b828001600101855582156101b6579182015b828111156101b557823582559160200191906001019061019a565b5b5090506101c391906101c7565b5090565b6101e991905b808211156101e55760008160009055506001016101cd565b5090565b90565b6105e7806101fb6000396000f3fe608060405234801561001057600080fd5b50600436106101215760003560e01c806351ff4847116100ad578063d297a89f11610071578063d297a89f146103c5578063d348022f146103e3578063d6f8ecae14610401578063f22a195e1461041f578063f68016b71461043d57610121565b806351ff48471461026057806367e404ce146102bc5780636ca7c2161461030657806373d4a13a14610324578063c92da302146103a757610121565b8063349dc329116100f4578063349dc3291461019e5780633fa4f245146101e8578063469df5051461020657806346c67843146102245780634fb2e0be1461024257610121565b8063080da5dc1461012657806316ada5471461014457806319cae4621461016257806321ed4b2714610180575b600080fd5b61012e61045b565b6040518082815260200191505060405180910390f35b61014c610461565b6040518082815260200191505060405180910390f35b61016a610467565b6040518082815260200191505060405180910390f35b61018861046d565b6040518082815260200191505060405180910390f35b6101a6610473565b604051808273ffffffffffffffffffffffffffffffffffffffff1673ffffffffffffffffffffffffffffffffffffffff16815260200191505060405180910390f35b6101f0610499565b6040518082815260200191505060405180910390f35b61020e61049f565b6040518082815260200191505060405180910390f35b61022c6104a5565b6040518082815260200191505060405180910390f35b61024a6104ab565b6040518082815260200191505060405180910390f35b6102686104b1565b60405180827bffffffffffffffffffffffffffffffffffffffffffffffffffffffff19167bffffffffffffffffffffffffffffffffffffffffffffffffffffffff1916815260200191505060405180910390f35b6102c46104c4565b604051808273ffffffffffffffffffffffffffffffffffffffff1673ffffffffffffffffffffffffffffffffffffffff16815260200191505060405180910390f35b61030e6104ea565b6040518082815260200191505060405180910390f35b61032c6104f0565b6040518080602001828103825283818151815260200191508051906020019080838360005b8381101561036c578082015181840152602081019050610351565b50505050905090810190601f1680156103995780820380516001836020036101000a031916815260200191505b509250505060405180910390f35b6103af61058e565b6040518082815260200191505060405180910390f35b6103cd610594565b6040518082815260200191505060405180910390f35b6103eb61059a565b6040518082815260200191505060405180910390f35b6104096105a0565b6040518082815260200191505060405180910390f35b6104276105a6565b6040518082815260200191505060405180910390f35b6104456105ac565b6040518082815260200191505060405180910390f35b60025481565b600c5481565b600a5481565b60045481565b600960009054906101000a900473ffffffffffffffffffffffffffffffffffffffff1681565b60115481565b60055481565b60075481565b60005481565b601060149054906101000a900460e01b81565b601060009054906101000a900473ffffffffffffffffffffffffffffffffffffffff1681565b600f5481565b600e8054600181600116156101000203166002900480601f0160208091040260200160405190810160405280929190818152602001828054600181600116156101000203166002900480156105865780601f1061055b57610100808354040283529160200191610586565b820191906000526020600020905b81548152906001019060200180831161056957829003601f168201915b505050505081565b60065481565b60035481565b60015481565b600d5481565b60085481565b600b548156fea265627a7a72315820843941a923fbb43edf19784028f2d78b5b018987653e70dde2b30b9525d9223a64736f6c63430005100032",
  "source": "pragma solidity 0.5.16;\r\n\r\ncontract keyWords{\r\n    uint public oneWei = 1 wei;\r\n    uint public oneSzabo = 1 szabo;\r\n    uint public oneFinney = 1 finney;\r\n    uint public oneEther = 1 ether;\r\n\r\n    //time\r\n    uint public oneSecond = 1 seconds;\r\n    uint public oneMinute = 1 minutes;\r\n    uint public oneHour = 1 hours;\r\n    uint public oneWeek = 1 weeks;\r\n\r\n    // block\r\n    bytes32 public blockHash = blockhash(52);\r\n    address public miner = block.coinbase;\r\n    uint public difficulty = block.difficulty;\r\n    uint public gasLimit = block.gaslimit;\r\n    uint public time = block.timestamp;\r\n    uint public time2 = now;\r\n\r\n    //transaction\r\n\r\n    bytes public data = msg.data;\r\n    uint public gas = gasleft();\r\n    address public sender = msg.sender;\r\n    bytes4 public signature = msg.sig;\r\n    uint public value = msg.value;\r\n\r\n\r\n\r\n\r\n\r\n\r\n\r\n\r\n\r\n\r\n\r\n}",
  "sourcePath": "D:/Repository/Solidity/SmartContracts/contracts/keyWords.sol",
  "compiler": {
    "name": "solc",
    "version": "0.5.16+commit.9c3226ce.Emscripten.clang"
  },
  "schemaVersion": "3.4.1",
  "updatedAt": "2021-07-21T23:05:46.703Z",
  "devdoc": {
    "methods": {}
  },
  "userdoc": {
    "methods": {}
  }
}