{
  "contractName": "keyWords",
  "abi": [
    {
      "constant": true,
      "inputs": [],
      "name": "blockHash",
      "outputs": [
        {
          "internalType": "bytes32",
          "name": "",
          "type": "bytes32"
        }
      ],
      "payable": false,
      "stateMutability": "view",
      "type": "function"
    },
    {
      "constant": true,
      "inputs": [],
      "name": "data",
      "outputs": [
        {
          "internalType": "bytes",
          "name": "",
          "type": "bytes"
        }
      ],
      "payable": false,
      "stateMutability": "view",
      "type": "function"
    },
    {
      "constant": true,
      "inputs": [],
      "name": "difficulty",
      "outputs": [
        {
          "internalType": "uint256",
          "name": "",
          "type": "uint256"
        }
      ],
      "payable": false,
      "stateMutability": "view",
      "type": "function"
    },
    {
      "constant": true,
      "inputs": [],
      "name": "gas",
      "outputs": [
        {
          "internalType": "uint256",
          "name": "",
          "type": "uint256"
        }
      ],
      "payable": false,
      "stateMutability": "view",
      "type": "function"
    },
    {
      "constant": true,
      "inputs": [],
      "name": "gasLimit",
      "outputs": [
        {
          "internalType": "uint256",
          "name": "",
          "type": "uint256"
        }
      ],
      "payable": false,
      "stateMutability": "view",
      "type": "function"
    },
    {
      "constant": true,
      "inputs": [],
      "name": "miner",
      "outputs": [
        {
          "internalType": "address",
          "name": "",
          "type": "address"
        }
      ],
      "payable": false,
      "stateMutability": "view",
      "type": "function"
    },
    {
      "constant": true,
      "inputs": [],
      "name": "oneEther",
      "outputs": [
        {
          "internalType": "uint256",
          "name": "",
          "type": "uint256"
        }
      ],
      "payable": false,
      "stateMutability": "view",
      "type": "function"
    },
    {
      "constant": true,
      "inputs": [],
      "name": "oneFinney",
      "outputs": [
        {
          "internalType": "uint256",
          "name": "",
          "type": "uint256"
        }
      ],
      "payable": false,
      "stateMutability": "view",
      "type": "function"
    },
    {
      "constant": true,
      "inputs": [],
      "name": "oneHour",
      "outputs": [
        {
          "internalType": "uint256",
          "name": "",
          "type": "uint256"
        }
      ],
      "payable": false,
      "stateMutability": "view",
      "type": "function"
    },
    {
      "constant": true,
      "inputs": [],
      "name": "oneMinute",
      "outputs": [
        {
          "internalType": "uint256",
          "name": "",
          "type": "uint256"
        }
      ],
      "payable": false,
      "stateMutability": "view",
      "type": "function"
    },
    {
      "constant": true,
      "inputs": [],
      "name": "oneSecond",
      "outputs": [
        {
          "internalType": "uint256",
          "name": "",
          "type": "uint256"
        }
      ],
      "payable": false,
      "stateMutability": "view",
      "type": "function"
    },
    {
      "constant": true,
      "inputs": [],
      "name": "oneSzabo",
      "outputs": [
        {
          "internalType": "uint256",
          "name": "",
          "type": "uint256"
        }
      ],
      "payable": false,
      "stateMutability": "view",
      "type": "function"
    },
    {
      "constant": true,
      "inputs": [],
      "name": "oneWeek",
      "outputs": [
        {
          "internalType": "uint256",
          "name": "",
          "type": "uint256"
        }
      ],
      "payable": false,
      "stateMutability": "view",
      "type": "function"
    },
    {
      "constant": true,
      "inputs": [],
      "name": "oneWei",
      "outputs": [
        {
          "internalType": "uint256",
          "name": "",
          "type": "uint256"
        }
      ],
      "payable": false,
      "stateMutability": "view",
      "type": "function"
    },
    {
      "constant": true,
      "inputs": [],
      "name": "sender",
      "outputs": [
        {
          "internalType": "address",
          "name": "",
          "type": "address"
        }
      ],
      "payable": false,
      "stateMutability": "view",
      "type": "function"
    },
    {
      "constant": true,
      "inputs": [],
      "name": "signature",
      "outputs": [
        {
          "internalType": "bytes4",
          "name": "",
          "type": "bytes4"
        }
      ],
      "payable": false,
      "stateMutability": "view",
      "type": "function"
    },
    {
      "constant": true,
      "inputs": [],
      "name": "time",
      "outputs": [
        {
          "internalType": "uint256",
          "name": "",
          "type": "uint256"
        }
      ],
      "payable": false,
      "stateMutability": "view",
      "type": "function"
    },
    {
      "constant": true,
      "inputs": [],
      "name": "time2",
      "outputs": [
        {
          "internalType": "uint256",
          "name": "",
          "type": "uint256"
        }
      ],
      "payable": false,
      "stateMutability": "view",
      "type": "function"
    },
    {
      "constant": true,
      "inputs": [],
      "name": "value",
      "outputs": [
        {
          "internalType": "uint256",
          "name": "",
          "type": "uint256"
        }
      ],
      "payable": false,
      "stateMutability": "view",
      "type": "function"
    },
    {
      "constant": false,
      "inputs": [],
      "name": "Trx",
      "outputs": [],
      "payable": true,
      "stateMutability": "payable",
      "type": "function"
    }
  ],
  "bytecode": "0x6080604052600160005564e8d4a5100060015566038d7ea4c68000600255670de0b6b3a76400006003556001600455603c600555610e1060065562093a8060075534801561004c57600080fd5b506108978061005c6000396000f3fe60806040526004361061011f5760003560e01c806367e404ce116100a0578063d297a89f11610064578063d297a89f14610483578063d348022f146104ae578063d6f8ecae146104d9578063f22a195e14610504578063f68016b71461052f5761011f565b806367e404ce1461033c5780636ca7c2161461039357806373d4a13a146103be578063a1ade4821461044e578063c92da302146104585761011f565b80633fa4f245116100e75780633fa4f24514610227578063469df5051461025257806346c678431461027d5780634fb2e0be146102a857806351ff4847146102d35761011f565b8063080da5dc1461012457806316ada5471461014f57806319cae4621461017a57806321ed4b27146101a5578063349dc329146101d0575b600080fd5b34801561013057600080fd5b5061013961055a565b6040518082815260200191505060405180910390f35b34801561015b57600080fd5b50610164610560565b6040518082815260200191505060405180910390f35b34801561018657600080fd5b5061018f610566565b6040518082815260200191505060405180910390f35b3480156101b157600080fd5b506101ba61056c565b6040518082815260200191505060405180910390f35b3480156101dc57600080fd5b506101e5610572565b604051808273ffffffffffffffffffffffffffffffffffffffff1673ffffffffffffffffffffffffffffffffffffffff16815260200191505060405180910390f35b34801561023357600080fd5b5061023c610598565b6040518082815260200191505060405180910390f35b34801561025e57600080fd5b5061026761059e565b6040518082815260200191505060405180910390f35b34801561028957600080fd5b506102926105a4565b6040518082815260200191505060405180910390f35b3480156102b457600080fd5b506102bd6105aa565b6040518082815260200191505060405180910390f35b3480156102df57600080fd5b506102e86105b0565b60405180827bffffffffffffffffffffffffffffffffffffffffffffffffffffffff19167bffffffffffffffffffffffffffffffffffffffffffffffffffffffff1916815260200191505060405180910390f35b34801561034857600080fd5b506103516105c3565b604051808273ffffffffffffffffffffffffffffffffffffffff1673ffffffffffffffffffffffffffffffffffffffff16815260200191505060405180910390f35b34801561039f57600080fd5b506103a86105e9565b6040518082815260200191505060405180910390f35b3480156103ca57600080fd5b506103d36105ef565b6040518080602001828103825283818151815260200191508051906020019080838360005b838110156104135780820151818401526020810190506103f8565b50505050905090810190601f1680156104405780820380516001836020036101000a031916815260200191505b509250505060405180910390f35b61045661068d565b005b34801561046457600080fd5b5061046d610799565b6040518082815260200191505060405180910390f35b34801561048f57600080fd5b5061049861079f565b6040518082815260200191505060405180910390f35b3480156104ba57600080fd5b506104c36107a5565b6040518082815260200191505060405180910390f35b3480156104e557600080fd5b506104ee6107ab565b6040518082815260200191505060405180910390f35b34801561051057600080fd5b506105196107b1565b6040518082815260200191505060405180910390f35b34801561053b57600080fd5b506105446107b7565b6040518082815260200191505060405180910390f35b60025481565b600c5481565b600a5481565b60045481565b600960009054906101000a900473ffffffffffffffffffffffffffffffffffffffff1681565b60115481565b60055481565b60075481565b60005481565b601060149054906101000a900460e01b81565b601060009054906101000a900473ffffffffffffffffffffffffffffffffffffffff1681565b600f5481565b600e8054600181600116156101000203166002900480601f0160208091040260200160405190810160405280929190818152602001828054600181600116156101000203166002900480156106855780601f1061065a57610100808354040283529160200191610685565b820191906000526020600020905b81548152906001019060200180831161066857829003601f168201915b505050505081565b60344060088190555041600960006101000a81548173ffffffffffffffffffffffffffffffffffffffff021916908373ffffffffffffffffffffffffffffffffffffffff16021790555044600a8190555045600b8190555042600c8190555042600d81905550600036600e91906107059291906107bd565b505a600f8190555033601060006101000a81548173ffffffffffffffffffffffffffffffffffffffff021916908373ffffffffffffffffffffffffffffffffffffffff1602179055506000357fffffffff0000000000000000000000000000000000000000000000000000000016601060146101000a81548163ffffffff021916908360e01c021790555034601181905550565b60065481565b60035481565b60015481565b600d5481565b60085481565b600b5481565b828054600181600116156101000203166002900490600052602060002090601f016020900481019282601f106107fe57803560ff191683800117855561082c565b8280016001018555821561082c579182015b8281111561082b578235825591602001919060010190610810565b5b509050610839919061083d565b5090565b61085f91905b8082111561085b576000816000905550600101610843565b5090565b9056fea265627a7a72315820fdd7d8847dc3784f179e901242fa1476e74f51cdf4c85a2bb0fb76e20af4963d64736f6c63430005100032",
  "source": "pragma solidity 0.5.16;\r\n\r\ncontract keyWords{\r\n    uint public oneWei = 1 wei;\r\n    uint public oneSzabo = 1 szabo;\r\n    uint public oneFinney = 1 finney;\r\n    uint public oneEther = 1 ether;\r\n\r\n    //time\r\n    uint public oneSecond = 1 seconds;\r\n    uint public oneMinute = 1 minutes;\r\n    uint public oneHour = 1 hours;\r\n    uint public oneWeek = 1 weeks;\r\n\r\n    // block\r\n    bytes32 public blockHash;\r\n    address public miner;\r\n    uint public difficulty;\r\n    uint public gasLimit;\r\n    uint public time;\r\n    uint public time2;\r\n\r\n    //transaction\r\n\r\n    bytes public data;\r\n    uint public gas;\r\n    address public sender;\r\n    bytes4 public signature;\r\n    uint public value;\r\n\r\n    function Trx()  public payable {\r\n        blockHash = blockhash(52);\r\n        miner = block.coinbase;\r\n        difficulty = block.difficulty;\r\n        gasLimit = block.gaslimit;\r\n        time = block.timestamp;\r\n        time2 = now;\r\n\r\n        //transaction\r\n\r\n        data = msg.data;\r\n        gas = gasleft();\r\n        sender = msg.sender;\r\n        signature = msg.sig;\r\n        value = msg.value;\r\n\r\n    }\r\n\r\n\r\n\r\n\r\n\r\n\r\n\r\n\r\n\r\n\r\n\r\n}",
  "sourcePath": "D:/Repository/Solidity/SmartContracts/contracts/keyWords.sol",
  "compiler": {
    "name": "solc",
    "version": "0.5.16+commit.9c3226ce.Emscripten.clang"
  },
  "schemaVersion": "3.4.1",
  "updatedAt": "2021-07-21T23:16:45.242Z",
  "networkType": "ethereum",
  "devdoc": {
    "methods": {}
  },
  "userdoc": {
    "methods": {}
  }
}