{
  "contractName": "Types",
  "abi": [
    {
      "constant": true,
      "inputs": [],
      "name": "addr",
      "outputs": [
        {
          "internalType": "address payable",
          "name": "",
          "type": "address"
        }
      ],
      "payable": false,
      "stateMutability": "view",
      "type": "function"
    },
    {
      "constant": true,
      "inputs": [],
      "name": "bb",
      "outputs": [
        {
          "internalType": "bytes1",
          "name": "",
          "type": "bytes1"
        }
      ],
      "payable": false,
      "stateMutability": "view",
      "type": "function"
    },
    {
      "constant": true,
      "inputs": [
        {
          "internalType": "uint256",
          "name": "",
          "type": "uint256"
        }
      ],
      "name": "myArray",
      "outputs": [
        {
          "internalType": "uint256",
          "name": "",
          "type": "uint256"
        }
      ],
      "payable": false,
      "stateMutability": "view",
      "type": "function"
    },
    {
      "constant": true,
      "inputs": [],
      "name": "str",
      "outputs": [
        {
          "internalType": "string",
          "name": "",
          "type": "string"
        }
      ],
      "payable": false,
      "stateMutability": "view",
      "type": "function"
    },
    {
      "constant": false,
      "inputs": [
        {
          "internalType": "string",
          "name": "_str",
          "type": "string"
        }
      ],
      "name": "setStr",
      "outputs": [],
      "payable": false,
      "stateMutability": "nonpayable",
      "type": "function"
    },
    {
      "constant": false,
      "inputs": [
        {
          "internalType": "uint256",
          "name": "item",
          "type": "uint256"
        }
      ],
      "name": "addElement",
      "outputs": [],
      "payable": false,
      "stateMutability": "nonpayable",
      "type": "function"
    },
    {
      "constant": true,
      "inputs": [],
      "name": "getLenght",
      "outputs": [
        {
          "internalType": "uint256",
          "name": "",
          "type": "uint256"
        }
      ],
      "payable": false,
      "stateMutability": "view",
      "type": "function"
    },
    {
      "constant": true,
      "inputs": [
        {
          "internalType": "uint256",
          "name": "item1",
          "type": "uint256"
        },
        {
          "internalType": "uint256",
          "name": "item2",
          "type": "uint256"
        },
        {
          "internalType": "uint256",
          "name": "item3",
          "type": "uint256"
        }
      ],
      "name": "createAndGetArray",
      "outputs": [
        {
          "internalType": "uint256[]",
          "name": "",
          "type": "uint256[]"
        }
      ],
      "payable": false,
      "stateMutability": "pure",
      "type": "function"
    }
  ],
  "bytecode": "0x608060405273e2650eb514227f7d990e33363a37791be84107e56000806101000a81548173ffffffffffffffffffffffffffffffffffffffff021916908373ffffffffffffffffffffffffffffffffffffffff1602179055506040518060400160405280600b81526020017f536f6d6520737472696e67000000000000000000000000000000000000000000815250600190805190602001906100a39291906100b6565b503480156100b057600080fd5b5061015b565b828054600181600116156101000203166002900490600052602060002090601f016020900481019282601f106100f757805160ff1916838001178555610125565b82800160010185558215610125579182015b82811115610124578251825591602001919060010190610109565b5b5090506101329190610136565b5090565b61015891905b8082111561015457600081600090555060010161013c565b5090565b90565b6106528061016a6000396000f3fe608060405234801561001057600080fd5b50600436106100885760003560e01c8063c15bae841161005b578063c15bae8414610212578063cc3e57d914610295578063e88ab5ac146102d7578063f5d9612d1461036e57610088565b80630a9ae69d1461008d578063191347df146100ef578063767800de146101aa578063bed2a42e146101f4575b600080fd5b61009561039c565b60405180827effffffffffffffffffffffffffffffffffffffffffffffffffffffffffffff19167effffffffffffffffffffffffffffffffffffffffffffffffffffffffffffff1916815260200191505060405180910390f35b6101a86004803603602081101561010557600080fd5b810190808035906020019064010000000081111561012257600080fd5b82018360208201111561013457600080fd5b8035906020019184600183028401116401000000008311171561015657600080fd5b91908080601f016020809104026020016040519081016040528093929190818152602001838380828437600081840152601f19601f8201169050808301925050505050505091929192905050506103af565b005b6101b26103c9565b604051808273ffffffffffffffffffffffffffffffffffffffff1673ffffffffffffffffffffffffffffffffffffffff16815260200191505060405180910390f35b6101fc6103ee565b6040518082815260200191505060405180910390f35b61021a6103fb565b6040518080602001828103825283818151815260200191508051906020019080838360005b8381101561025a57808201518184015260208101905061023f565b50505050905090810190601f1680156102875780820380516001836020036101000a031916815260200191505b509250505060405180910390f35b6102c1600480360360208110156102ab57600080fd5b8101908080359060200190929190505050610499565b6040518082815260200191505060405180910390f35b610317600480360360608110156102ed57600080fd5b810190808035906020019092919080359060200190929190803590602001909291905050506104ba565b6040518080602001828103825283818151815260200191508051906020019060200280838360005b8381101561035a57808201518184015260208101905061033f565b505050509050019250505060405180910390f35b61039a6004803603602081101561038457600080fd5b8101908080359060200190929190505050610549565b005b600260009054906101000a900460f81b81565b80600190805190602001906103c5929190610578565b5050565b6000809054906101000a900473ffffffffffffffffffffffffffffffffffffffff1681565b6000600380549050905090565b60018054600181600116156101000203166002900480601f0160208091040260200160405190810160405280929190818152602001828054600181600116156101000203166002900480156104915780601f1061046657610100808354040283529160200191610491565b820191906000526020600020905b81548152906001019060200180831161047457829003601f168201915b505050505081565b600381815481106104a657fe5b906000526020600020016000915090505481565b60608060036040519080825280602002602001820160405280156104ed5781602001602082028038833980820191505090505b50905084816000815181106104fe57fe5b602002602001018181525050838160018151811061051857fe5b602002602001018181525050828160028151811061053257fe5b602002602001018181525050809150509392505050565b600381908060018154018082558091505090600182039060005260206000200160009091929091909150555050565b828054600181600116156101000203166002900490600052602060002090601f016020900481019282601f106105b957805160ff19168380011785556105e7565b828001600101855582156105e7579182015b828111156105e65782518255916020019190600101906105cb565b5b5090506105f491906105f8565b5090565b61061a91905b808211156106165760008160009055506001016105fe565b5090565b9056fea265627a7a723158205e860f5daeca9e905740deffd09bdaea88332592adc8b5431ce5df5a601202d464736f6c63430005100032",
  "source": "pragma solidity ^0.5.16;\r\n\r\ncontract Types {\r\n\r\n    address payable public addr = 0xe2650EB514227f7d990e33363A37791bE84107e5;\r\n    string public str = \"Some string\";\r\n    byte public bb;\r\n    uint[] public myArray;\r\n\r\n    function setStr(string memory _str) public {\r\n        str = _str;\r\n    }\r\n\r\n    function addElement(uint item) public {\r\n        myArray.push(item);\r\n    }\r\n\r\n    function getLenght() public view returns(uint) {\r\n        return myArray.length;\r\n    }\r\n\r\n    function createAndGetArray(uint item1, uint item2, uint item3) public pure returns(uint[] memory) {\r\n        uint[] memory newArray = new uint[](3);\r\n        newArray[0] = item1;\r\n        newArray[1] = item2;\r\n        newArray[2] = item3;\r\n        return newArray;\r\n    }\r\n\r\n\r\n  \r\n}",
  "sourcePath": "D:/Repository/Solidity/SmartContracts/contracts/Types.sol",
  "compiler": {
    "name": "solc",
    "version": "0.5.16+commit.9c3226ce.Emscripten.clang"
  },
  "schemaVersion": "3.4.1",
  "updatedAt": "2021-07-21T11:16:24.044Z",
  "networkType": "ethereum",
  "devdoc": {
    "methods": {}
  },
  "userdoc": {
    "methods": {}
  }
}