{
  "contractName": "Types",
  "abi": [
    {
      "constant": true,
      "inputs": [],
      "name": "addr",
      "outputs": [
        {
          "internalType": "address payable",
          "name": "",
          "type": "address"
        }
      ],
      "payable": false,
      "stateMutability": "view",
      "type": "function"
    },
    {
      "constant": true,
      "inputs": [],
      "name": "bb",
      "outputs": [
        {
          "internalType": "bytes1",
          "name": "",
          "type": "bytes1"
        }
      ],
      "payable": false,
      "stateMutability": "view",
      "type": "function"
    },
    {
      "constant": true,
      "inputs": [
        {
          "internalType": "uint256",
          "name": "",
          "type": "uint256"
        }
      ],
      "name": "myArray",
      "outputs": [
        {
          "internalType": "uint256",
          "name": "",
          "type": "uint256"
        }
      ],
      "payable": false,
      "stateMutability": "view",
      "type": "function"
    },
    {
      "constant": true,
      "inputs": [],
      "name": "str",
      "outputs": [
        {
          "internalType": "string",
          "name": "",
          "type": "string"
        }
      ],
      "payable": false,
      "stateMutability": "view",
      "type": "function"
    },
    {
      "constant": false,
      "inputs": [
        {
          "internalType": "string",
          "name": "_str",
          "type": "string"
        }
      ],
      "name": "setStr",
      "outputs": [],
      "payable": false,
      "stateMutability": "nonpayable",
      "type": "function"
    },
    {
      "constant": false,
      "inputs": [
        {
          "internalType": "uint256",
          "name": "item",
          "type": "uint256"
        }
      ],
      "name": "addElement",
      "outputs": [],
      "payable": false,
      "stateMutability": "nonpayable",
      "type": "function"
    },
    {
      "constant": true,
      "inputs": [],
      "name": "getLenght",
      "outputs": [
        {
          "internalType": "uint256",
          "name": "",
          "type": "uint256"
        }
      ],
      "payable": false,
      "stateMutability": "view",
      "type": "function"
    },
    {
      "constant": true,
      "inputs": [
        {
          "internalType": "uint256",
          "name": "item1",
          "type": "uint256"
        },
        {
          "internalType": "uint256",
          "name": "item2",
          "type": "uint256"
        },
        {
          "internalType": "uint256",
          "name": "item3",
          "type": "uint256"
        }
      ],
      "name": "createAndGetArray",
      "outputs": [
        {
          "internalType": "uint256[]",
          "name": "",
          "type": "uint256[]"
        }
      ],
      "payable": false,
      "stateMutability": "pure",
      "type": "function"
    },
    {
      "constant": true,
      "inputs": [
        {
          "internalType": "uint256",
          "name": "i",
          "type": "uint256"
        }
      ],
      "name": "getElementById",
      "outputs": [
        {
          "internalType": "uint256",
          "name": "",
          "type": "uint256"
        }
      ],
      "payable": false,
      "stateMutability": "view",
      "type": "function"
    }
  ],
  "bytecode": "0x608060405273e2650eb514227f7d990e33363a37791be84107e56000806101000a81548173ffffffffffffffffffffffffffffffffffffffff021916908373ffffffffffffffffffffffffffffffffffffffff1602179055506040518060400160405280600b81526020017f536f6d6520737472696e67000000000000000000000000000000000000000000815250600190805190602001906100a39291906100b6565b503480156100b057600080fd5b5061015b565b828054600181600116156101000203166002900490600052602060002090601f016020900481019282601f106100f757805160ff1916838001178555610125565b82800160010185558215610125579182015b82811115610124578251825591602001919060010190610109565b5b5090506101329190610136565b5090565b61015891905b8082111561015457600081600090555060010161013c565b5090565b90565b6106c08061016a6000396000f3fe608060405234801561001057600080fd5b50600436106100935760003560e01c8063bed2a42e11610066578063bed2a42e14610241578063c15bae841461025f578063cc3e57d9146102e2578063e88ab5ac14610324578063f5d9612d146103bb57610093565b80630a9ae69d1461009857806318d7f7c5146100fa578063191347df1461013c578063767800de146101f7575b600080fd5b6100a06103e9565b60405180827effffffffffffffffffffffffffffffffffffffffffffffffffffffffffffff19167effffffffffffffffffffffffffffffffffffffffffffffffffffffffffffff1916815260200191505060405180910390f35b6101266004803603602081101561011057600080fd5b81019080803590602001909291905050506103fc565b6040518082815260200191505060405180910390f35b6101f56004803603602081101561015257600080fd5b810190808035906020019064010000000081111561016f57600080fd5b82018360208201111561018157600080fd5b803590602001918460018302840111640100000000831117156101a357600080fd5b91908080601f016020809104026020016040519081016040528093929190818152602001838380828437600081840152601f19601f82011690508083019250505050505050919291929050505061041d565b005b6101ff610437565b604051808273ffffffffffffffffffffffffffffffffffffffff1673ffffffffffffffffffffffffffffffffffffffff16815260200191505060405180910390f35b61024961045c565b6040518082815260200191505060405180910390f35b610267610469565b6040518080602001828103825283818151815260200191508051906020019080838360005b838110156102a757808201518184015260208101905061028c565b50505050905090810190601f1680156102d45780820380516001836020036101000a031916815260200191505b509250505060405180910390f35b61030e600480360360208110156102f857600080fd5b8101908080359060200190929190505050610507565b6040518082815260200191505060405180910390f35b6103646004803603606081101561033a57600080fd5b81019080803590602001909291908035906020019092919080359060200190929190505050610528565b6040518080602001828103825283818151815260200191508051906020019060200280838360005b838110156103a757808201518184015260208101905061038c565b505050509050019250505060405180910390f35b6103e7600480360360208110156103d157600080fd5b81019080803590602001909291905050506105b7565b005b600260009054906101000a900460f81b81565b60006003828154811061040b57fe5b90600052602060002001549050919050565b80600190805190602001906104339291906105e6565b5050565b6000809054906101000a900473ffffffffffffffffffffffffffffffffffffffff1681565b6000600380549050905090565b60018054600181600116156101000203166002900480601f0160208091040260200160405190810160405280929190818152602001828054600181600116156101000203166002900480156104ff5780601f106104d4576101008083540402835291602001916104ff565b820191906000526020600020905b8154815290600101906020018083116104e257829003601f168201915b505050505081565b6003818154811061051457fe5b906000526020600020016000915090505481565b606080600360405190808252806020026020018201604052801561055b5781602001602082028038833980820191505090505b509050848160008151811061056c57fe5b602002602001018181525050838160018151811061058657fe5b60200260200101818152505082816002815181106105a057fe5b602002602001018181525050809150509392505050565b600381908060018154018082558091505090600182039060005260206000200160009091929091909150555050565b828054600181600116156101000203166002900490600052602060002090601f016020900481019282601f1061062757805160ff1916838001178555610655565b82800160010185558215610655579182015b82811115610654578251825591602001919060010190610639565b5b5090506106629190610666565b5090565b61068891905b8082111561068457600081600090555060010161066c565b5090565b9056fea265627a7a723158200ea39a5a7d95c5f474fdb3653953d161a834d2a18b1c29494ff8ad76d5e4a6dc64736f6c63430005100032",
  "source": "pragma solidity ^0.5.16;\r\n\r\ncontract Types {\r\n\r\n    address payable public addr = 0xe2650EB514227f7d990e33363A37791bE84107e5;\r\n    string public str = \"Some string\";\r\n    byte public bb;\r\n    uint[] public myArray;\r\n\r\n    function setStr(string memory _str) public {\r\n        str = _str;\r\n    }\r\n\r\n    function addElement(uint item) public {\r\n        myArray.push(item);\r\n    }\r\n\r\n    function getLenght() public view returns(uint) {\r\n        return myArray.length;\r\n    }\r\n\r\n    function createAndGetArray(uint item1, uint item2, uint item3) public pure returns(uint[] memory) {\r\n        uint[] memory newArray = new uint[](3);\r\n        newArray[0] = item1;\r\n        newArray[1] = item2;\r\n        newArray[2] = item3;\r\n        return newArray;\r\n    }\r\n\r\n    function getElementById(uint i) public view returns(uint) {\r\n        return myArray[i];\r\n    }\r\n\r\n\r\n  \r\n}",
  "sourcePath": "D:/Repository/Solidity/SmartContracts/contracts/Types.sol",
  "compiler": {
    "name": "solc",
    "version": "0.5.16+commit.9c3226ce.Emscripten.clang"
  },
  "schemaVersion": "3.4.1",
  "updatedAt": "2021-07-21T11:42:15.673Z",
  "networkType": "ethereum",
  "devdoc": {
    "methods": {}
  },
  "userdoc": {
    "methods": {}
  }
}