{
  "contractName": "Types",
  "abi": [
    {
      "constant": true,
      "inputs": [],
      "name": "addr",
      "outputs": [
        {
          "internalType": "address payable",
          "name": "",
          "type": "address"
        }
      ],
      "payable": false,
      "stateMutability": "view",
      "type": "function"
    },
    {
      "constant": true,
      "inputs": [],
      "name": "bb",
      "outputs": [
        {
          "internalType": "bytes1",
          "name": "",
          "type": "bytes1"
        }
      ],
      "payable": false,
      "stateMutability": "view",
      "type": "function"
    },
    {
      "constant": true,
      "inputs": [
        {
          "internalType": "uint256",
          "name": "",
          "type": "uint256"
        }
      ],
      "name": "myArray",
      "outputs": [
        {
          "internalType": "uint256",
          "name": "",
          "type": "uint256"
        }
      ],
      "payable": false,
      "stateMutability": "view",
      "type": "function"
    },
    {
      "constant": true,
      "inputs": [
        {
          "internalType": "uint256",
          "name": "",
          "type": "uint256"
        }
      ],
      "name": "myMap",
      "outputs": [
        {
          "internalType": "string",
          "name": "",
          "type": "string"
        }
      ],
      "payable": false,
      "stateMutability": "view",
      "type": "function"
    },
    {
      "constant": true,
      "inputs": [],
      "name": "str",
      "outputs": [
        {
          "internalType": "string",
          "name": "",
          "type": "string"
        }
      ],
      "payable": false,
      "stateMutability": "view",
      "type": "function"
    },
    {
      "constant": false,
      "inputs": [
        {
          "internalType": "string",
          "name": "_str",
          "type": "string"
        }
      ],
      "name": "setStr",
      "outputs": [],
      "payable": false,
      "stateMutability": "nonpayable",
      "type": "function"
    },
    {
      "constant": false,
      "inputs": [
        {
          "internalType": "uint256",
          "name": "item",
          "type": "uint256"
        }
      ],
      "name": "addElement",
      "outputs": [],
      "payable": false,
      "stateMutability": "nonpayable",
      "type": "function"
    },
    {
      "constant": true,
      "inputs": [],
      "name": "getLenght",
      "outputs": [
        {
          "internalType": "uint256",
          "name": "",
          "type": "uint256"
        }
      ],
      "payable": false,
      "stateMutability": "view",
      "type": "function"
    },
    {
      "constant": true,
      "inputs": [
        {
          "internalType": "uint256",
          "name": "item1",
          "type": "uint256"
        },
        {
          "internalType": "uint256",
          "name": "item2",
          "type": "uint256"
        },
        {
          "internalType": "uint256",
          "name": "item3",
          "type": "uint256"
        }
      ],
      "name": "createAndGetArray",
      "outputs": [
        {
          "internalType": "uint256[]",
          "name": "",
          "type": "uint256[]"
        }
      ],
      "payable": false,
      "stateMutability": "pure",
      "type": "function"
    },
    {
      "constant": true,
      "inputs": [
        {
          "internalType": "uint256",
          "name": "i",
          "type": "uint256"
        }
      ],
      "name": "getElementById",
      "outputs": [
        {
          "internalType": "uint256",
          "name": "",
          "type": "uint256"
        }
      ],
      "payable": false,
      "stateMutability": "view",
      "type": "function"
    },
    {
      "constant": false,
      "inputs": [
        {
          "internalType": "uint256",
          "name": "_key",
          "type": "uint256"
        },
        {
          "internalType": "string",
          "name": "_value",
          "type": "string"
        }
      ],
      "name": "addToMap",
      "outputs": [],
      "payable": false,
      "stateMutability": "nonpayable",
      "type": "function"
    },
    {
      "constant": true,
      "inputs": [
        {
          "internalType": "uint256",
          "name": "_key",
          "type": "uint256"
        }
      ],
      "name": "getFromMap",
      "outputs": [
        {
          "internalType": "string",
          "name": "",
          "type": "string"
        }
      ],
      "payable": false,
      "stateMutability": "view",
      "type": "function"
    }
  ],
  "bytecode": "0x608060405273e2650eb514227f7d990e33363a37791be84107e56000806101000a81548173ffffffffffffffffffffffffffffffffffffffff021916908373ffffffffffffffffffffffffffffffffffffffff1602179055506040518060400160405280600b81526020017f536f6d6520737472696e67000000000000000000000000000000000000000000815250600190805190602001906100a39291906100b6565b503480156100b057600080fd5b5061015b565b828054600181600116156101000203166002900490600052602060002090601f016020900481019282601f106100f757805160ff1916838001178555610125565b82800160010185558215610125579182015b82811115610124578251825591602001919060010190610109565b5b5090506101329190610136565b5090565b61015891905b8082111561015457600081600090555060010161013c565b5090565b90565b610a858061016a6000396000f3fe608060405234801561001057600080fd5b50600436106100b45760003560e01c80637d18f737116100715780637d18f737146103b0578063bed2a42e14610475578063c15bae8414610493578063cc3e57d914610516578063e88ab5ac14610558578063f5d9612d146105ef576100b4565b806309cccd11146100b95780630a9ae69d1461016057806318d7f7c5146101c2578063191347df146102045780636af390aa146102bf578063767800de14610366575b600080fd5b6100e5600480360360208110156100cf57600080fd5b810190808035906020019092919050505061061d565b6040518080602001828103825283818151815260200191508051906020019080838360005b8381101561012557808201518184015260208101905061010a565b50505050905090810190601f1680156101525780820380516001836020036101000a031916815260200191505b509250505060405180910390f35b6101686106d2565b60405180827effffffffffffffffffffffffffffffffffffffffffffffffffffffffffffff19167effffffffffffffffffffffffffffffffffffffffffffffffffffffffffffff1916815260200191505060405180910390f35b6101ee600480360360208110156101d857600080fd5b81019080803590602001909291905050506106e5565b6040518082815260200191505060405180910390f35b6102bd6004803603602081101561021a57600080fd5b810190808035906020019064010000000081111561023757600080fd5b82018360208201111561024957600080fd5b8035906020019184600183028401116401000000008311171561026b57600080fd5b91908080601f016020809104026020016040519081016040528093929190818152602001838380828437600081840152601f19601f820116905080830192505050505050509192919290505050610706565b005b6102eb600480360360208110156102d557600080fd5b8101908080359060200190929190505050610720565b6040518080602001828103825283818151815260200191508051906020019080838360005b8381101561032b578082015181840152602081019050610310565b50505050905090810190601f1680156103585780820380516001836020036101000a031916815260200191505b509250505060405180910390f35b61036e6107d0565b604051808273ffffffffffffffffffffffffffffffffffffffff1673ffffffffffffffffffffffffffffffffffffffff16815260200191505060405180910390f35b610473600480360360408110156103c657600080fd5b8101908080359060200190929190803590602001906401000000008111156103ed57600080fd5b8201836020820111156103ff57600080fd5b8035906020019184600183028401116401000000008311171561042157600080fd5b91908080601f016020809104026020016040519081016040528093929190818152602001838380828437600081840152601f19601f8201169050808301925050505050505091929192905050506107f5565b005b61047d610821565b6040518082815260200191505060405180910390f35b61049b61082e565b6040518080602001828103825283818151815260200191508051906020019080838360005b838110156104db5780820151818401526020810190506104c0565b50505050905090810190601f1680156105085780820380516001836020036101000a031916815260200191505b509250505060405180910390f35b6105426004803603602081101561052c57600080fd5b81019080803590602001909291905050506108cc565b6040518082815260200191505060405180910390f35b6105986004803603606081101561056e57600080fd5b810190808035906020019092919080359060200190929190803590602001909291905050506108ed565b6040518080602001828103825283818151815260200191508051906020019060200280838360005b838110156105db5780820151818401526020810190506105c0565b505050509050019250505060405180910390f35b61061b6004803603602081101561060557600080fd5b810190808035906020019092919050505061097c565b005b6060600460008381526020019081526020016000208054600181600116156101000203166002900480601f0160208091040260200160405190810160405280929190818152602001828054600181600116156101000203166002900480156106c65780601f1061069b576101008083540402835291602001916106c6565b820191906000526020600020905b8154815290600101906020018083116106a957829003601f168201915b50505050509050919050565b600260009054906101000a900460f81b81565b6000600382815481106106f457fe5b90600052602060002001549050919050565b806001908051906020019061071c9291906109ab565b5050565b60046020528060005260406000206000915090508054600181600116156101000203166002900480601f0160208091040260200160405190810160405280929190818152602001828054600181600116156101000203166002900480156107c85780601f1061079d576101008083540402835291602001916107c8565b820191906000526020600020905b8154815290600101906020018083116107ab57829003601f168201915b505050505081565b6000809054906101000a900473ffffffffffffffffffffffffffffffffffffffff1681565b8060046000848152602001908152602001600020908051906020019061081c9291906109ab565b505050565b6000600380549050905090565b60018054600181600116156101000203166002900480601f0160208091040260200160405190810160405280929190818152602001828054600181600116156101000203166002900480156108c45780601f10610899576101008083540402835291602001916108c4565b820191906000526020600020905b8154815290600101906020018083116108a757829003601f168201915b505050505081565b600381815481106108d957fe5b906000526020600020016000915090505481565b60608060036040519080825280602002602001820160405280156109205781602001602082028038833980820191505090505b509050848160008151811061093157fe5b602002602001018181525050838160018151811061094b57fe5b602002602001018181525050828160028151811061096557fe5b602002602001018181525050809150509392505050565b600381908060018154018082558091505090600182039060005260206000200160009091929091909150555050565b828054600181600116156101000203166002900490600052602060002090601f016020900481019282601f106109ec57805160ff1916838001178555610a1a565b82800160010185558215610a1a579182015b82811115610a195782518255916020019190600101906109fe565b5b509050610a279190610a2b565b5090565b610a4d91905b80821115610a49576000816000905550600101610a31565b5090565b9056fea265627a7a7231582051f084e6fdbeb07cfb3128a4ebaf725a1b3353ae0ee796476bff3748a56b91a664736f6c63430005100032",
  "source": "pragma solidity ^0.5.16;\r\n\r\ncontract Types {\r\n\r\n    address payable public addr = 0xe2650EB514227f7d990e33363A37791bE84107e5;\r\n    string public str = \"Some string\";\r\n    byte public bb;\r\n    uint[] public myArray;\r\n    mapping (uint => string) public myMap;\r\n\r\n    function setStr(string memory _str) public {\r\n        str = _str;\r\n    }\r\n\r\n    function addElement(uint item) public {\r\n        myArray.push(item);\r\n    }\r\n\r\n    function getLenght() public view returns(uint) {\r\n        return myArray.length;\r\n    }\r\n\r\n    function createAndGetArray(uint item1, uint item2, uint item3) public pure returns(uint[] memory) {\r\n        uint[] memory newArray = new uint[](3);\r\n        newArray[0] = item1;\r\n        newArray[1] = item2;\r\n        newArray[2] = item3;\r\n        return newArray;\r\n    }\r\n\r\n    function getElementById(uint i) public view returns(uint){\r\n        return myArray[i];\r\n    }\r\n\r\n    function addToMap(uint _key, string memory _value) public{\r\n        myMap[_key] = _value;\r\n    }\r\n\r\n    function getFromMap(uint _key) public view returns(string memory){\r\n        return myMap[_key];\r\n    }\r\n\r\n\r\n  \r\n}",
  "sourcePath": "D:/Repository/Solidity/SmartContracts/contracts/Types.sol",
  "compiler": {
    "name": "solc",
    "version": "0.5.16+commit.9c3226ce.Emscripten.clang"
  },
  "schemaVersion": "3.4.1",
  "updatedAt": "2021-07-21T12:58:28.322Z",
  "networkType": "ethereum",
  "devdoc": {
    "methods": {}
  },
  "userdoc": {
    "methods": {}
  }
}