{
  "contractName": "Types",
  "abi": [
    {
      "constant": true,
      "inputs": [],
      "name": "addr",
      "outputs": [
        {
          "internalType": "address payable",
          "name": "",
          "type": "address"
        }
      ],
      "payable": false,
      "stateMutability": "view",
      "type": "function"
    },
    {
      "constant": true,
      "inputs": [],
      "name": "bb",
      "outputs": [
        {
          "internalType": "bytes1",
          "name": "",
          "type": "bytes1"
        }
      ],
      "payable": false,
      "stateMutability": "view",
      "type": "function"
    },
    {
      "constant": true,
      "inputs": [
        {
          "internalType": "uint256",
          "name": "",
          "type": "uint256"
        }
      ],
      "name": "myArray",
      "outputs": [
        {
          "internalType": "uint256",
          "name": "",
          "type": "uint256"
        }
      ],
      "payable": false,
      "stateMutability": "view",
      "type": "function"
    },
    {
      "constant": true,
      "inputs": [
        {
          "internalType": "uint256",
          "name": "",
          "type": "uint256"
        }
      ],
      "name": "myMap",
      "outputs": [
        {
          "internalType": "string",
          "name": "",
          "type": "string"
        }
      ],
      "payable": false,
      "stateMutability": "view",
      "type": "function"
    },
    {
      "constant": true,
      "inputs": [
        {
          "internalType": "uint256",
          "name": "",
          "type": "uint256"
        }
      ],
      "name": "persons",
      "outputs": [
        {
          "internalType": "string",
          "name": "name",
          "type": "string"
        },
        {
          "internalType": "string",
          "name": "lastName",
          "type": "string"
        },
        {
          "internalType": "uint8",
          "name": "age",
          "type": "uint8"
        }
      ],
      "payable": false,
      "stateMutability": "view",
      "type": "function"
    },
    {
      "constant": true,
      "inputs": [],
      "name": "str",
      "outputs": [
        {
          "internalType": "string",
          "name": "",
          "type": "string"
        }
      ],
      "payable": false,
      "stateMutability": "view",
      "type": "function"
    },
    {
      "constant": false,
      "inputs": [
        {
          "internalType": "string",
          "name": "_str",
          "type": "string"
        }
      ],
      "name": "setStr",
      "outputs": [],
      "payable": false,
      "stateMutability": "nonpayable",
      "type": "function"
    },
    {
      "constant": false,
      "inputs": [
        {
          "internalType": "uint256",
          "name": "item",
          "type": "uint256"
        }
      ],
      "name": "addElement",
      "outputs": [],
      "payable": false,
      "stateMutability": "nonpayable",
      "type": "function"
    },
    {
      "constant": true,
      "inputs": [],
      "name": "getLenght",
      "outputs": [
        {
          "internalType": "uint256",
          "name": "",
          "type": "uint256"
        }
      ],
      "payable": false,
      "stateMutability": "view",
      "type": "function"
    },
    {
      "constant": true,
      "inputs": [
        {
          "internalType": "uint256",
          "name": "item1",
          "type": "uint256"
        },
        {
          "internalType": "uint256",
          "name": "item2",
          "type": "uint256"
        },
        {
          "internalType": "uint256",
          "name": "item3",
          "type": "uint256"
        }
      ],
      "name": "createAndGetArray",
      "outputs": [
        {
          "internalType": "uint256[]",
          "name": "",
          "type": "uint256[]"
        }
      ],
      "payable": false,
      "stateMutability": "pure",
      "type": "function"
    },
    {
      "constant": true,
      "inputs": [
        {
          "internalType": "uint256",
          "name": "i",
          "type": "uint256"
        }
      ],
      "name": "getElementById",
      "outputs": [
        {
          "internalType": "uint256",
          "name": "",
          "type": "uint256"
        }
      ],
      "payable": false,
      "stateMutability": "view",
      "type": "function"
    },
    {
      "constant": false,
      "inputs": [
        {
          "internalType": "uint256",
          "name": "_key",
          "type": "uint256"
        },
        {
          "internalType": "string",
          "name": "_value",
          "type": "string"
        }
      ],
      "name": "addToMap",
      "outputs": [],
      "payable": false,
      "stateMutability": "nonpayable",
      "type": "function"
    },
    {
      "constant": true,
      "inputs": [
        {
          "internalType": "uint256",
          "name": "_key",
          "type": "uint256"
        }
      ],
      "name": "getFromMap",
      "outputs": [
        {
          "internalType": "string",
          "name": "",
          "type": "string"
        }
      ],
      "payable": false,
      "stateMutability": "view",
      "type": "function"
    },
    {
      "constant": false,
      "inputs": [
        {
          "internalType": "string",
          "name": "_name",
          "type": "string"
        },
        {
          "internalType": "string",
          "name": "_lastName",
          "type": "string"
        },
        {
          "internalType": "uint8",
          "name": "_age",
          "type": "uint8"
        }
      ],
      "name": "addToPerson",
      "outputs": [],
      "payable": false,
      "stateMutability": "nonpayable",
      "type": "function"
    }
  ],
  "bytecode": "0x608060405273e2650eb514227f7d990e33363a37791be84107e56000806101000a81548173ffffffffffffffffffffffffffffffffffffffff021916908373ffffffffffffffffffffffffffffffffffffffff1602179055506040518060400160405280600b81526020017f536f6d6520737472696e67000000000000000000000000000000000000000000815250600190805190602001906100a39291906100b6565b503480156100b057600080fd5b5061015b565b828054600181600116156101000203166002900490600052602060002090601f016020900481019282601f106100f757805160ff1916838001178555610125565b82800160010185558215610125579182015b82811115610124578251825591602001919060010190610109565b5b5090506101329190610136565b5090565b61015891905b8082111561015457600081600090555060010161013c565b5090565b90565b610fdc8061016a6000396000f3fe608060405234801561001057600080fd5b50600436106100ea5760003560e01c806393b793361161008c578063c15bae8411610066578063c15bae8414610748578063cc3e57d9146107cb578063e88ab5ac1461080d578063f5d9612d146108a4576100ea565b806393b79336146104ab578063a2f9eac61461060a578063bed2a42e1461072a576100ea565b8063191347df116100c8578063191347df1461023a5780636af390aa146102f5578063767800de1461039c5780637d18f737146103e6576100ea565b806309cccd11146100ef5780630a9ae69d1461019657806318d7f7c5146101f8575b600080fd5b61011b6004803603602081101561010557600080fd5b81019080803590602001909291905050506108d2565b6040518080602001828103825283818151815260200191508051906020019080838360005b8381101561015b578082015181840152602081019050610140565b50505050905090810190601f1680156101885780820380516001836020036101000a031916815260200191505b509250505060405180910390f35b61019e610987565b60405180827effffffffffffffffffffffffffffffffffffffffffffffffffffffffffffff19167effffffffffffffffffffffffffffffffffffffffffffffffffffffffffffff1916815260200191505060405180910390f35b6102246004803603602081101561020e57600080fd5b810190808035906020019092919050505061099a565b6040518082815260200191505060405180910390f35b6102f36004803603602081101561025057600080fd5b810190808035906020019064010000000081111561026d57600080fd5b82018360208201111561027f57600080fd5b803590602001918460018302840111640100000000831117156102a157600080fd5b91908080601f016020809104026020016040519081016040528093929190818152602001838380828437600081840152601f19601f8201169050808301925050505050505091929192905050506109bb565b005b6103216004803603602081101561030b57600080fd5b81019080803590602001909291905050506109d5565b6040518080602001828103825283818151815260200191508051906020019080838360005b83811015610361578082015181840152602081019050610346565b50505050905090810190601f16801561038e5780820380516001836020036101000a031916815260200191505b509250505060405180910390f35b6103a4610a85565b604051808273ffffffffffffffffffffffffffffffffffffffff1673ffffffffffffffffffffffffffffffffffffffff16815260200191505060405180910390f35b6104a9600480360360408110156103fc57600080fd5b81019080803590602001909291908035906020019064010000000081111561042357600080fd5b82018360208201111561043557600080fd5b8035906020019184600183028401116401000000008311171561045757600080fd5b91908080601f016020809104026020016040519081016040528093929190818152602001838380828437600081840152601f19601f820116905080830192505050505050509192919290505050610aaa565b005b610608600480360360608110156104c157600080fd5b81019080803590602001906401000000008111156104de57600080fd5b8201836020820111156104f057600080fd5b8035906020019184600183028401116401000000008311171561051257600080fd5b91908080601f016020809104026020016040519081016040528093929190818152602001838380828437600081840152601f19601f8201169050808301925050505050505091929192908035906020019064010000000081111561057557600080fd5b82018360208201111561058757600080fd5b803590602001918460018302840111640100000000831117156105a957600080fd5b91908080601f016020809104026020016040519081016040528093929190818152602001838380828437600081840152601f19601f820116905080830192505050505050509192919290803560ff169060200190929190505050610ad6565b005b6106366004803603602081101561062057600080fd5b8101908080359060200190929190505050610b84565b6040518080602001806020018460ff1660ff168152602001838103835286818151815260200191508051906020019080838360005b8381101561068657808201518184015260208101905061066b565b50505050905090810190601f1680156106b35780820380516001836020036101000a031916815260200191505b50838103825285818151815260200191508051906020019080838360005b838110156106ec5780820151818401526020810190506106d1565b50505050905090810190601f1680156107195780820380516001836020036101000a031916815260200191505b509550505050505060405180910390f35b610732610cf8565b6040518082815260200191505060405180910390f35b610750610d05565b6040518080602001828103825283818151815260200191508051906020019080838360005b83811015610790578082015181840152602081019050610775565b50505050905090810190601f1680156107bd5780820380516001836020036101000a031916815260200191505b509250505060405180910390f35b6107f7600480360360208110156107e157600080fd5b8101908080359060200190929190505050610da3565b6040518082815260200191505060405180910390f35b61084d6004803603606081101561082357600080fd5b81019080803590602001909291908035906020019092919080359060200190929190505050610dc4565b6040518080602001828103825283818151815260200191508051906020019060200280838360005b83811015610890578082015181840152602081019050610875565b505050509050019250505060405180910390f35b6108d0600480360360208110156108ba57600080fd5b8101908080359060200190929190505050610e53565b005b6060600460008381526020019081526020016000208054600181600116156101000203166002900480601f01602080910402602001604051908101604052809291908181526020018280546001816001161561010002031660029004801561097b5780601f106109505761010080835404028352916020019161097b565b820191906000526020600020905b81548152906001019060200180831161095e57829003601f168201915b50505050509050919050565b600260009054906101000a900460f81b81565b6000600382815481106109a957fe5b90600052602060002001549050919050565b80600190805190602001906109d1929190610e82565b5050565b60046020528060005260406000206000915090508054600181600116156101000203166002900480601f016020809104026020016040519081016040528092919081815260200182805460018160011615610100020316600290048015610a7d5780601f10610a5257610100808354040283529160200191610a7d565b820191906000526020600020905b815481529060010190602001808311610a6057829003601f168201915b505050505081565b6000809054906101000a900473ffffffffffffffffffffffffffffffffffffffff1681565b80600460008481526020019081526020016000209080519060200190610ad1929190610e82565b505050565b600560405180606001604052808581526020018481526020018360ff16815250908060018154018082558091505090600182039060005260206000209060030201600090919290919091506000820151816000019080519060200190610b3d929190610f02565b506020820151816001019080519060200190610b5a929190610f02565b5060408201518160020160006101000a81548160ff021916908360ff160217905550505050505050565b60058181548110610b9157fe5b9060005260206000209060030201600091509050806000018054600181600116156101000203166002900480601f016020809104026020016040519081016040528092919081815260200182805460018160011615610100020316600290048015610c3d5780601f10610c1257610100808354040283529160200191610c3d565b820191906000526020600020905b815481529060010190602001808311610c2057829003601f168201915b505050505090806001018054600181600116156101000203166002900480601f016020809104026020016040519081016040528092919081815260200182805460018160011615610100020316600290048015610cdb5780601f10610cb057610100808354040283529160200191610cdb565b820191906000526020600020905b815481529060010190602001808311610cbe57829003601f168201915b5050505050908060020160009054906101000a900460ff16905083565b6000600380549050905090565b60018054600181600116156101000203166002900480601f016020809104026020016040519081016040528092919081815260200182805460018160011615610100020316600290048015610d9b5780601f10610d7057610100808354040283529160200191610d9b565b820191906000526020600020905b815481529060010190602001808311610d7e57829003601f168201915b505050505081565b60038181548110610db057fe5b906000526020600020016000915090505481565b6060806003604051908082528060200260200182016040528015610df75781602001602082028038833980820191505090505b5090508481600081518110610e0857fe5b6020026020010181815250508381600181518110610e2257fe5b6020026020010181815250508281600281518110610e3c57fe5b602002602001018181525050809150509392505050565b600381908060018154018082558091505090600182039060005260206000200160009091929091909150555050565b828054600181600116156101000203166002900490600052602060002090601f016020900481019282601f10610ec357805160ff1916838001178555610ef1565b82800160010185558215610ef1579182015b82811115610ef0578251825591602001919060010190610ed5565b5b509050610efe9190610f82565b5090565b828054600181600116156101000203166002900490600052602060002090601f016020900481019282601f10610f4357805160ff1916838001178555610f71565b82800160010185558215610f71579182015b82811115610f70578251825591602001919060010190610f55565b5b509050610f7e9190610f82565b5090565b610fa491905b80821115610fa0576000816000905550600101610f88565b5090565b9056fea265627a7a723158203486f1f85ee30a7f19fd6a140ac748e3007c3574e194740b9299ac232cb7bac964736f6c63430005100032",
  "source": "pragma solidity ^0.5.16;\r\n\r\ncontract Types {\r\n\r\n    address payable public addr = 0xe2650EB514227f7d990e33363A37791bE84107e5;\r\n    string public str = \"Some string\";\r\n    byte public bb;\r\n    uint[] public myArray;\r\n    mapping (uint => string) public myMap;\r\n\r\n    function setStr(string memory _str) public {\r\n        str = _str;\r\n    }\r\n\r\n    function addElement(uint item) public {\r\n        myArray.push(item);\r\n    }\r\n\r\n    function getLenght() public view returns(uint) {\r\n        return myArray.length;\r\n    }\r\n\r\n    function createAndGetArray(uint item1, uint item2, uint item3) public pure returns(uint[] memory) {\r\n        uint[] memory newArray = new uint[](3);\r\n        newArray[0] = item1;\r\n        newArray[1] = item2;\r\n        newArray[2] = item3;\r\n        return newArray;\r\n    }\r\n\r\n    function getElementById(uint i) public view returns(uint){\r\n        return myArray[i];\r\n    }\r\n\r\n    function addToMap(uint _key, string memory _value) public{\r\n        myMap[_key] = _value;\r\n    }\r\n\r\n    function getFromMap(uint _key) public view returns(string memory){\r\n        return myMap[_key];\r\n    }\r\n\r\n    struct Person{\r\n        string name;\r\n        string lastName;\r\n        uint8 age;\r\n    }\r\n\r\n    Person[] public persons;\r\n\r\n    function addToPerson(string memory _name, string memory _lastName, uint8 _age) public {\r\n        persons.push(Person(_name, _lastName, _age));\r\n    }\r\n\r\n\r\n\r\n\r\n\r\n  \r\n}",
  "sourcePath": "D:/Repository/Solidity/SmartContracts/contracts/Types.sol",
  "compiler": {
    "name": "solc",
    "version": "0.5.16+commit.9c3226ce.Emscripten.clang"
  },
  "schemaVersion": "3.4.1",
  "updatedAt": "2021-07-21T21:04:02.173Z",
  "networkType": "ethereum",
  "devdoc": {
    "methods": {}
  },
  "userdoc": {
    "methods": {}
  }
}